:020000040800F2
:1000000000000120551A0008291300082B130008CE
:100010002D1300082F130008311300080000000002
:100020000000000000000000000000003313000882
:1000300035130008000000003713000839130008CA
:10004000A51A0008A51A00083D130008A51A000803
:10005000A51A0008A51A0008A51A0008A51A000884
:10006000A51A0008A51A0008A51A000849130008D7
:10007000A51A0008A51A0008A51A0008A51A000864
:10008000A51A0008A51A0008A51A0008A51A000854
:1000900000000000A51A0008A51A0008A51A00080B
:1000A000A51A0008A51A0008A51A0008A51A000834
:1000B000A51A0008A51A0008A51A0008A51A000824
:1000C000A51A0008A51A0008A51A0008A51A000814
:1000D000A51A000855130008A51A0008A51A00085B
:1000E000A51A0008A51A000861130008A51A00083F
:1000F000A51A00080000000000000000A51A000872
:10010000A51A0008A51A00086D130008A51A000812
:10011000A51A0008A51A0008A51A0008A51A0008C3
:10012000A51A0008A51A0008A51A0008A51A0008B3
:08013000A51A0008A51A000839
:1001400010B5054C237833B9044B13B10448AFF311
:1001500000800123237010BD8801002000000000F2
:10016000ECE8000808B5034B1BB103490348AFF3A3
:10017000008008BD000000008C010020ECE80008B1
:10018000034613F8012B002AFBD1181A01387047D7
:1001900001F0FF01102A2BDB10F0070F08D010F838
:1001A000013B013A8B422DD010F0070F42B3F6D13C
:1001B000F0B441EA012141EA014122F007047FF055
:1001C00000070023F0E80256083C85EA010586EAAC
:1001D000010685FA47F5A3FA87F586FA47F6A5FAE8
:1001E00087F68EB9EED1F0BC01F0FF0102F00702F4
:1001F00032B110F8013B013A83EA010313B1F8D19F
:100200000020704701387047002D06BF354603387F
:10021000073815F0010F07D1013015F4807F02BFB8
:10022000013015F4C03F0130F0BC0138704700BF09
:1002300081F0004102E000BF83F0004330B54FEA97
:1002400041044FEA430594EA050F08BF90EA020F04
:100250001FBF54EA000C55EA020C7FEA645C7FEA97
:10026000655C00F0E2804FEA5454D4EB5555B8BFBA
:100270006D420CDD2C4480EA020281EA030382EA2B
:10028000000083EA010180EA020281EA0303362DBD
:1002900088BF30BD11F0004F4FEA01314FF4801C90
:1002A0004CEA113102D0404261EB410113F0004FA2
:1002B0004FEA03334CEA133302D0524263EB430359
:1002C00094EA050F00F0A780A4F10104D5F1200EF7
:1002D0000DDB02FA0EFC22FA05F2801841F1000152
:1002E00003FA0EF2801843FA05F359410EE0A5F126
:1002F00020050EF1200E012A03FA0EFC28BF4CF057
:10030000020C43FA05F3C01851EBE37101F000450C
:1003100007D54FF0000EDCF1000C7EEB00006EEB19
:100320000101B1F5801F1BD3B1F5001F0CD34908A3
:100330005FEA30004FEA3C0C04F101044FEA4452FA
:1003400012F5800F80F09A80BCF1004F08BF5FEA81
:10035000500C50F1000041EB045141EA050130BD61
:100360005FEA4C0C404141EB0101013C28BFB1F573
:10037000801FE9D291F0000F04BF01460020B1FABE
:1003800081F308BF2033A3F10B03B3F120020CDA91
:100390000C3208DD02F1140CC2F10C0201FA0CF06F
:1003A00021FA02F10CE002F11402D8BFC2F1200CD4
:1003B00001FA02F120FA0CFCDCBF41EA0C0190408A
:1003C000E41AA2BF01EB0451294330BD6FEA0404D3
:1003D0001F3C1CDA0C340EDC04F11404C4F12002BE
:1003E00020FA04F001FA02F340EA030021FA04F3D0
:1003F00045EA030130BDC4F10C04C4F1200220FA27
:1004000002F001FA04F340EA0300294630BD21FA64
:1004100004F0294630BD94F0000F83F4801306BF2A
:1004200081F480110134013D4EE77FEA645C18BF1E
:100430007FEA655C29D094EA050F08BF90EA020FB5
:1004400005D054EA000C04BF1946104630BD91EAAD
:10045000030F1EBF0021002030BD5FEA545C05D1B0
:100460004000494128BF41F0004130BD14F58004EF
:100470003CBF01F5801130BD01F0004545F0FE4163
:1004800041F470014FF0000030BD7FEA645C1ABF98
:10049000194610467FEA655C1CBF0B46024650EACF
:1004A000013406BF52EA033591EA030F41F40021FB
:1004B00030BD00BF90F0000F04BF0021704730B581
:1004C0004FF4806404F132044FF000054FF0000156
:1004D00050E700BF90F0000F04BF0021704730B517
:1004E0004FF4806404F1320410F0004548BF4042EC
:1004F0004FF000013EE700BF42004FEAE2014FEA41
:1005000031014FEA02701FBF12F07F4393F07F4F1B
:1005100081F06051704732F07F4208BF704793F01E
:100520007F4F04BF41F40021704730B54FF4607431
:1005300001F0004521F000411CE700BF50EA010234
:1005400008BF704730B54FF000050AE050EA0102DD
:1005500008BF704730B511F0004502D5404261EB4D
:1005600041014FF4806404F132045FEA915C3FF48E
:10057000D8AE4FF003025FEADC0C18BF03325FEA2B
:10058000DC0C18BF033202EBDC02C2F1200300FADC
:1005900003FC20FA02F001FA03FE40EA0E0021FA01
:1005A00002F11444BDE600BF4FF0FF3C06E000BF7F
:1005B0004FF0010C02E000BF4FF0010C4DF804CDEC
:1005C0004FEA410C7FEA6C5C4FEA430C18BF7FEAAC
:1005D0006C5C1BD001B050EA410C0CBF52EA430CDA
:1005E00091EA030F02BF90EA020F0020704710F15A
:1005F000000F91EA030F58BF994208BF90422CBFE9
:10060000D8176FEAE37040F0010070474FEA410CE1
:100610007FEA6C5C02D150EA013C07D14FEA430CFF
:100620007FEA6C5CD6D152EA033CD3D05DF8040B70
:10063000704700BF8446104662468C4619466346A2
:1006400000E000BF01B5FFF7B7FF002848BF10F179
:10065000000F01BD4DF808EDFFF7F4FF0CBF0120BE
:1006600000205DF808FB00BF4DF808EDFFF7EAFF3A
:1006700034BF012000205DF808FB00BF4DF808EDF5
:10068000FFF7E0FF94BF012000205DF808FB00BFEA
:100690004DF808EDFFF7CEFF94BF012000205DF874
:1006A00008FB00BF4DF808EDFFF7C4FF34BF012081
:1006B00000205DF808FB00BF4FEA410212F500126E
:1006C00015D211D56FF47873B3EB625212D94FEA99
:1006D000C12343F0004343EA505311F0004F23FA83
:1006E00002F018BF404270474FF00000704750EAD8
:1006F000013005D111F0004008BF6FF00040704795
:100700004FF00000704700BF80F0004002E000BFE3
:1007100081F0004142001FBF5FEA410392EA030FEC
:100720007FEA226C7FEA236C6AD04FEA1262D2EB36
:100730001363C1BFD218414048404140B8BF5B423B
:10074000192B88BF704710F0004F40F4000020F0D4
:100750007F4018BF404211F0004F41F4000121F0EA
:100760007F4118BF494292EA030F3FD0A2F1010234
:1007700041FA03FC10EB0C00C3F1200301FA03F172
:1007800000F0004302D5494260EB4000B0F5000F95
:1007900013D3B0F1807F06D340084FEA310102F154
:1007A0000102FE2A51D2B1F1004F40EBC25008BF06
:1007B00020F0010040EA03007047490040EB0000D0
:1007C000013A28BFB0F5000FEDD2B0FA80FCACF1D1
:1007D000080CB2EB0C0200FA0CF0AABF00EBC250FE
:1007E00052421843BCBFD0401843704792F0000FEC
:1007F00081F4000106BF80F400000132013BB5E73F
:100800004FEA41037FEA226C18BF7FEA236C21D0B4
:1008100092EA030F04D092F0000F08BF0846704719
:1008200090EA010F1CBF0020704712F07F4F04D1E7
:10083000400028BF40F00040704712F100723CBFFA
:1008400000F50000704700F0004343F0FE4040F424
:10085000000070477FEA226216BF08467FEA2363E2
:100860000146420206BF5FEA412390EA010F40F4CD
:10087000800070474FF0000304E000BF10F0004319
:1008800048BF40425FEA000C08BF704743F0964300
:1008900001464FF000001CE050EA010208BF70471B
:1008A0004FF000030AE000BF50EA010208BF7047A2
:1008B00011F0004302D5404261EB41015FEA010CB7
:1008C00002BF84460146002043F0B64308BFA3F1AF
:1008D0008053A3F50003BCFA8CF2083AA3EBC25391
:1008E00010DB01FA02FC634400FA02FCC2F12002B0
:1008F000BCF1004F20FA02F243EB020008BF20F0E7
:100900000100704702F1200201FA02FCC2F120024C
:1009100050EA4C0021FA02F243EB020008BF20EA41
:10092000DC7070474FEA4002B2F1FE4F0FD34FF038
:100930009E03B3EB12620DD94FEA002343F000434C
:1009400010F0004F23FA02F018BF404270474FF0FA
:100950000000704712F1610F01D1420205D110F081
:10096000004008BF6FF0004070474FF00000704734
:1009700053B94AB9002908BF00281CBF4FF0FF3106
:100980004FF0FF3000F074B9ADF1080C6DE904CE02
:1009900000F006F8DDF804E0DDE9022304B070475A
:1009A0002DE9F047089E0D4604468846002B4DD1A0
:1009B0008A42944668D9B2FA82F252B101FA02F33D
:1009C000C2F1200120FA01F10CFA02FC41EA03080D
:1009D00094404FEA1C45210CB8FBF5FE1FFA8CF73A
:1009E00005FB1E8341EA03430EFB07F199420BD935
:1009F0001CEB03030EF1FF3080F01E81994240F2A0
:100A00001B81AEF1020E63445B1AA4B2B3FBF5F096
:100A100005FB103344EA034400FB07F7A7420AD959
:100A20001CEB040400F1FF3380F00881A74240F280
:100A3000058164440238E41B40EA0E4000211EB1E7
:100A4000D4400023C6E90043BDE8F0878B4208D9B3
:100A5000002E00F0EE800021C6E900050846BDE842
:100A6000F087B3FA83F100294AD1AB4202D3824224
:100A700000F2F980841A65EB030301209846002EEA
:100A8000E2D0C6E90048DFE702B9FFDEB2FA82F23F
:100A9000002A40F09180A1EB0C054FEA1C471FFA99
:100AA0008CFE0121B5FBF7F307FB1350250C45EA3B
:100AB00000450EFB03F0A84208D91CEB050503F125
:100AC000FF3802D2A84200F2CB8043462D1AA4B2CE
:100AD000B5FBF7F007FB105544EA05440EFB00FE9A
:100AE000A64508D91CEB040400F1FF3502D2A64547
:100AF00000F2BB802846A4EB0E0440EA03409EE7C8
:100B0000C1F120078B4022FA07FC4CEA030C20FAC3
:100B100007F405FA01F31C43FD404FEA1C4900FAB3
:100B200001F3B5FBF9F8200C1FFA8CFE09FB1855F0
:100B300040EA054508FB0EF0A84202FA01F20BD983
:100B40001CEB050508F1FF3A80F08880A84240F2CE
:100B50008580A8F1020865442D1AA4B2B5FBF9F00E
:100B600009FB105544EA054500FB0EFEAE4508D9C9
:100B70001CEB050500F1FF346CD2AE456AD9023892
:100B8000654440EA0840A0FB0294A5EB0E05A5428F
:100B9000C846A64656D353D05EB1B3EB080265EB08
:100BA0000E0505FA07F722FA01F3CD401F43C6E907
:100BB00000750021BDE8F087C2F1200320FA03F19F
:100BC0000CFA02FC25FA03F395400D434FEA1C474B
:100BD0001FFA8CFEB3FBF7F107FB11302B0C43EA35
:100BE000004301FB0EF0984204FA02F408D91CEB12
:100BF000030301F1FF382FD298422DD90239634403
:100C00001B1AADB2B3FBF7F007FB103345EA0345FF
:100C100000FB0EF3AB4208D91CEB050500F1FF38D1
:100C200016D2AB4214D902386544ED1A40EA0141AC
:100C300038E73146304607E78646E5E61846FAE6E5
:100C40004B45A9D2B9EB020864EB0C0E0138A3E7BF
:100C50004046EAE7204694E74146D1E7D0467BE7A5
:100C6000023B654432E7084609E76444023842E73C
:100C7000704700BF1448154A08B54FF00043C0E95B
:100C800000230422426140F2011202830122002368
:100C9000C2614FF48052C0E90233C0E90933C0E9B0
:100CA0000C230361837680F8203080F82C30836336
:100CB00080F83C30C36400F049FF18B1BDE808403B
:100CC00000F094BA08BD00BFA40100200024014038
:100CD0000268084B9A4282B00AD14FF0B0431A6EB4
:100CE00042F400721A661B6E03F400730193019BB9
:100CF00002B07047002401400268054B9A4201BFD0
:100D00004FF0B042136E23F400731366704700BFB8
:100D10000024014030B585B000240546CDE90144EA
:100D20000394FFF7A7FF144801F0B0FA08B100F0F0
:100D30005DFA1148039401A9CDE9015401F072F85C
:100D400008B100F053FA0C4801F0D2F908B100F0F4
:100D50004DFA4FF0FF31084801F006F8064801F05F
:100D600077FA054801F05BF80446034801F022FADF
:100D7000204605B030BD00BFA4010020014B024A4F
:100D80001A607047A40100200024014008B50948FA
:100D9000FFF7C0FF68B1084BB3F8AA304FF6FF72F7
:100DA000934216BF40F6E442044B5343B3FBF0F0CA
:100DB00080B208BD002000B40075FF1FD8084C00A9
:100DC00013B50023ADF80630FFF7E0FF04461948DD
:100DD000FFF7A0FF1849B1F8C820B1F8A8108A425F
:100DE00004FB00F018D040F6E443B0FBF3F36420BA
:100DF0005B1A4343521A93FBF2F31E331BB2ADF856
:100E00000630BDF806305BB21B02ADF80630BDF807
:100E1000060000B202B010BD40F6FF73B0FBF3F362
:100E20004FF47A704343A3F53923A3F50C6340F6DE
:100E3000C412E0E7001000B00075FF1F4FF0B04390
:100E400007B59A6C42F004029A649A6C02F00402AC
:100E50000192019A9A6C42F001029A649B6C03F031
:100E600001030093002202210B20009B01F0ACFA49
:100E70000B2003B05DF804EB01F0D8BAF8B50B4FC6
:100E8000044616461D46D4E90023AB4208BFB242D1
:100E900001D10020F8BD3B691B03FCD432462B4630
:100EA0002146012001F05EFDEDE700BF0040005843
:100EB000F7B522F00705044605440E1AAC4206EBCE
:100EC000040101D1002015E0082268460CF02EFB39
:100ED000DDE90023B3F1FF3F08BFB2F1FF3F04F1AA
:100EE000080701D13C46E9E72046FFF7C7FF3C462B
:100EF0000028E3D003B0F0BD1FB50223CDE90130D7
:100F000003915AB101A801F0C1FD20B102280CBF24
:100F100001206FF0010005B05DF804FB694601A8EF
:100F200001F066FDF1E700002DE9F74F9A46474BC7
:100F3000D3F8E075464B00F1784603EA8727B6FB05
:100F4000F7F307FB136602F17843013B0344914634
:100F5000B3FBF7F207FB1233DB0A0546F60A0193EF
:100F6000884621B96FF0040003B0BDE8F08F40EA75
:100F700009035B07F6D1374B5B69002B5FDB019BF5
:100F80009E421ABFC0F30A03C3F500674F46019B98
:100F90009E4201D90020E7E72C4607EB050B14F031
:100FA0000700ABEB04020CD14FEAD20C60452FD105
:100FB000A2EBC0022244A24236D13A46414628461C
:100FC00020E014F8012BFF2AE9D0BAF1000FC9D0B4
:100FD000F40204F100644FF40062214650460CF024
:100FE000A5FAC5F30A00BAB2414650440CF09EFA85
:100FF000002201213046FFF77FFF18BB4FF400624B
:1010000051462046FFF754FF98B16FF00200ABE75E
:1010100054F8083B54F8041CB1F1FF3F08BFB3F18A
:10102000FF3FD2D10130C1E714F8011BFF29C2D024
:10103000CBE7B8440136A9EB07075D46A7E76FF099
:10104000030091E76FF001008EE700BF0070FF1F03
:1010500000FCFF03004000584FF0B04382B0DA6C50
:101060000243DA64DB6C18400190019B02B07047C8
:101070002DE9F04186B01422002101A80CF01EFFDA
:101080000220FFF7E9FF0120FFF7E6FF274E284F78
:101090008020FFF7E1FF0420FFF7DEFF4FF48071AF
:1010A0003046002201F044FE002238464FF4005141
:1010B00001F03EFE0024032541F2FD0301A9304664
:1010C000CDE901354FF00108039401F011FD4FF413
:1010D000807301A93046CDE90138CDE9034401F020
:1010E00007FD4FF6F37301A94FF09040CDE90135AC
:1010F000039401F0FDFC082301A90E480394CDE9F7
:10110000013501F0F5FC4FF4005301A93846CDE953
:101110000138CDE9034401F0EBFC074A536843F47E
:101120008023536006B0BDE8F08100BF0004004892
:1011300000080048001C00480000014000B59BB0BA
:101140004822002108A80CF0B9FE1822002102A8AC
:101150000CF0B4FE01F0F2FD4FF0B0420120D2F8E5
:10116000903023F01803C2F89030D2F8003423F402
:10117000C06343F40073C2F80034D2F8003403F4BF
:10118000C0630193019B2423089381230B930023C5
:10119000CDE91003B02208A8CDE9122301F04CFFDD
:1011A00008B172B6FEE74F23CDE90230CDE9040065
:1011B000CDE90600022102A802F0DEF908B172B6FC
:1011C000FEE71BB05DF804FB08B500F06DFCFFF70F
:1011D000B5FFFFF74DFF00F00BF8FFF72FFE00F013
:1011E000E9FA04F0F1F804F0F6F8FCE772B6FEE76D
:1011F00000B58DB02C22002101A80CF05FFE17482D
:10120000174B03601F2383604FF080420023C0E927
:101210000433C0E9072383614FF48073436202F013
:101220005DFC08B1FFF7E2FF0C4802F07FFD08B15A
:10123000FFF7DCFF4FF000530022079307480892A6
:101240004FF4807301A9029206920B9302F0A2FC64
:1012500008B1FFF7CBFF0DB05DF804FB08020020DA
:101260000028004010B5044690B03822002102A8A2
:101270000CF024FE2268194B9A422CD14FF4803393
:10128000029302A84FF480730F9302F097FA08B10B
:10129000FFF7ACFF4FF0B0430220D3F8902042F4A8
:1012A0000042C3F890209A6D42F480629A659B6D6B
:1012B000002203F4806311460193019B01F084F83E
:1012C000022001F0B3F800222A20114601F07CF838
:1012D0002A2001F0ABF810B010BD00BF002800407C
:1012E0007047000008B500F0F5FB044B0120C3F87F
:1012F0008800BDE8084001F079BD00BF0004005837
:1013000000F0EFBB08B500F0ECFBBDE8084000F0D2
:1013100061BB08B500F0DEFBBDE8084001210020FC
:1013200001F014BD70477047FEE7FEE7FEE7FEE7F9
:10133000FEE770477047704770470000014802F0B1
:101340001BBD00BF08020020014801F051BA00BFD8
:1013500054020020014803F0D5B800BFB4020020B9
:10136000014802F03DBB00BF08020020014802F026
:1013700022BF00BF40020020054808B508230360D3
:1013800002F040FD18B1BDE80840FFF72FBF08BDCF
:10139000400200204FF0B04307B55A6E42F0010200
:1013A0005A665B6E002203F001030193114632205E
:1013B000019B01F009F8322003B05DF804EB01F065
:1013C00035B800000CB407B5054A05AB10210193F0
:1013D0000CF09EF903B05DF804EB02B0704700BF5B
:1013E00070E9000830B585B0044602A80D460CF03F
:1013F00007F9BDF90C30064A00931021029B2046E4
:10140000FFF7E0FF2046FEF7BBFE288005B030BDA9
:1014100070E900084FF0B04210B5936823F4004320
:1014200093600CF059FB0E4B01241C7000F09EF8E9
:101430000CF0ACFC0B480CF0C3FC0B4B4FF400421F
:101440001A6102200CF0C2FCFFF798FC00F0B4F81F
:101450000CF016F821462046BDE810400CF030B8DC
:101460004C020020E5130008004000580CF03EB884
:1014700008B5FFF78BFC40F6B83398420CD8B0F5AE
:10148000E16F0BD3FE23A0F5E16058434FF4966360
:10149000B0FBF3F0C0B208BDFE20FCE70020FAE785
:1014A0007FB5684600F06CF80198FFF73BFA00B290
:1014B00007B05DF804FB0000184A38B5D2F8803553
:1014C000591C044616D100F013FB054600F01CFB26
:1014D000054400F013FB2B0EE3712B0CA3712B0AB8
:1014E0006371030EE370030CA370030A257163702C
:1014F000207038BD190AC3718171190C1B0E41711E
:101500000371D2F88435C370D2F884351A0A827018
:101510001A0C1B0E42700370EBE700BF0070FF1F38
:10152000074BD3F88005431C10B508D100F0E0FA52
:10153000044600F0E3FA444000F0E6FA604010BDD3
:101540000070FF1F002102200BF0A4BF0020704795
:10155000024B187808B100F069B870474C020020BF
:1015600082B00190019802B000F0FCB808B500F01C
:10157000D1FA00F0D7FABDE8084000F0DBBA00006D
:1015800010B50446FFF71CFC074BA36040F30F2087
:10159000FFF774F9054B064A2360064B6060C4E907
:1015A0000323002010BD00BF0000484200007A4421
:1015B0000D093E00AB030500002070477047000096
:1015C000014B1868704700BF50020020032070478D
:1015D00008B501464FF47A7200238002890DFFF7A7
:1015E000C7F908BD4FF47A73A0FB03309B0A43EAA6
:1015F00080507047034B98689A689042FBD1C04373
:10160000704700BF0028004008B5FFF7F3FF014B0B
:10161000186008BD5002002008B5FFF7EBFF024B31
:101620001B68C01A08BD00BF50020020024B18788A
:1016300008B1FFF7DFBF70474D02002010B5074B20
:10164000074C0122DA654FF48071204602F08CF9D4
:101650004FF0FF332363002010BD00BF002800407F
:101660000802002002460021014802F096BB00BF9C
:101670000802002002460121014802F08EBB00BF93
:101680000802002010B58CB02C220021044601A8CD
:101690000CF014FCFFF7D2FF0C4B18680023044435
:1016A000089306934FF00053E443079308480294CD
:1016B0004FF48073012201A90B9302F06BFA08B179
:1016C000FFF794FD00200CB010BD00BF50020020B9
:1016D0000802002038B50546FFF78CFF02210446BA
:1016E000074802F061FBC4F309024FF47A71A2FBD0
:1016F0000121920AA30A2A8043EA805038BD00BF24
:10170000080200200148002102F04EBB0802002020
:101710000148012102F048BB08020020F8B50F4D36
:101720002E78CEB90E4C4FF0FF372763FFF760FDE0
:10173000FFF784FF4FF48071204602F015F9204630
:10174000276302F0D5FA32462046022102F025FB3B
:10175000FFF75AFF01232B700020F8BD4D02002037
:1017600008020020014610B54FF47A72002380026F
:10177000890DFFF7FDF80146FFF73CFF0446FFF730
:1017800039FF031B8B4200D310BD00BFF7E70CF0FD
:10179000ADBA000010B5064C0221204602F004FB51
:1017A0000221421C2046BDE8104002F0F6BA00BFFC
:1017B000080200201648174A08B54FF4E133C0E983
:1017C000002300230C22C0E90233C0E90523C0E94D
:1017D0000733C0E90933036103F026FC08B1FFF7C2
:1017E00005FD0B48002103F0A7FD08B1FFF7FEFC43
:1017F0000748002103F0C4FD08B1FFF7F7FC0448D7
:1018000003F07FFD18B1BDE80840FFF7EFBC08BD4D
:10181000B40200200044004070B596B00646142281
:10182000002103A80CF04AFB3822002108A80CF084
:1018300045FB3268274B9A424AD10223089308A8F5
:101840004FF440230A9301F0B9FF08B1FFF7CEFC33
:101850004FF0B04300259A6D1F4C42F400329A6558
:101860009A6D02F400320292029ADA6C42F001029E
:10187000DA64DB6C03F001030193019B0C22022369
:10188000CDE9032303A907234FF090400793CDE947
:10189000055501F02DF9114925621423C4E90013FF
:1018A0001023C4E9023520468023C4E90435C4E985
:1018B000065500F01DFE08B1FFF798FC2520B4671F
:1018C00000220221A66200F07FFD252000F0AEFD7F
:1018D00016B070BD004400405402002008000240D1
:1018E00002680C4B9A4210B5044612D14FF0B04238
:1018F0000C21936D23F4003393654FF0904001F079
:10190000A3F9A06F00F06AFEBDE81040252000F0AA
:101910009BBD10BD0044004008B50A460146024880
:1019200002F042FD002008BDB402002013B5114BA7
:10193000114C18604FF40013009302AB13E906003A
:10194000204603F082FC2368DA69D103FCD4DA690B
:101950005202FCD59A68084842F480029A6003F06B
:10196000BAFC06490448012203F020FC002002B022
:1019700010BD00BF44030020B40200204C0300202F
:1019800008B5074B1860FFF759FAFFF713FF054A30
:10199000D2F8803043F00063C2F88030002008BDE8
:1019A000480300200008005808B54FF0B04308482D
:1019B0009A6B42F400329A639A6B22F400329A6373
:1019C000FFF78EFF0F2000F03FFD002008BD00BF95
:1019D000B402002008B5074803F026FB08B1FFF762
:1019E00005FC054800F084FD18B1BDE80840FFF78C
:1019F000FDBB08BDB4020020540200200268044B65
:101A00009A4203D1034B00201B681847704700BF60
:101A1000004400404803002002680B4B9A4210B576
:101A200004460FD1094B1B682BB1D0F88C2012B99A
:101A300007480121984720460549BDE8104001228A
:101A400003F0B4BB10BD00BF0044004044030020BD
:101A50004C0300200D488546FFF7B0FD0C480D49AA
:101A60000D4A002302E0D458C4500433C4188C42F9
:101A7000F9D30A4A0A4C002301E013600432A2425F
:101A8000FBD30CF0F7F9FFF79FFBFEE70000012006
:101A90000000002088010020D8F000088801002004
:101AA000B4200020FEE7000010B5032000F07AFC0F
:101AB00001F0B2FA064B18600F20FFF747FD04460D
:101AC00018B9FFF730FC204610BD0124FBE700BF2A
:101AD000000000204FF0E022136923F0020313619D
:101AE00070474FF0E022136943F00203136170471F
:101AF000014BD3F8900570470070FF1F014BD3F8DE
:101B0000940570470070FF1F014BD3F8980570478C
:101B10000070FF1F024A536823F0010353607047AF
:101B2000002004E0024A536823F002035360704728
:101B3000002004E0024A536823F004035360704716
:101B4000002004E08068C0F380007047F7B50023F0
:101B500001930446002800F0F980856D25B9FFF750
:101B6000B7F8E56584F8545020688368D90040F1DF
:101B7000A4808368DA0000F1B780A36D43F01003FE
:101B8000A365E36D43F00103E3650125FFF7DAFF89
:101B9000A36D03F010031843A36D40F0D98023F424
:101BA000817343F002032168A3658B68DB0760D46F
:101BB000E368A26894F818E094F819C0276BA67E31
:101BC0001A4342EA8E3343EACC33226994F82CC09C
:101BD000002F43EA463318BF4FF4805743EA4C03C3
:101BE000002AB4BF22F000424FF400123B431343DB
:101BF00094F82020012A03D1002E77D143F48033BA
:101C0000626A22B1A66A02F4E07232431343CA68E0
:101C100022F4FE3222F4FF7213436268CB60E36C5D
:101C200002F0404C4CEA030794F83C30012B09D1F8
:101C3000D4E910363343A66C3B43334343EA0C03E9
:101C400043F001070B69444E1E4022F000433E431F
:101C5000B3F1804F0E610CD0B2F1004F09D03F4E6E
:101C6000D6F8083702F4701223F470131A43C6F83A
:101C700008274B69666BA26B23F0070333434B6164
:101C80004B6923F0700343EA02134B612369002B75
:101C900035D18B6A63F00F038B624B6903F0070346
:101CA0009E4249D10023E365A36D23F0030343F073
:101CB0000103A365284603B0F0BD8368284A23F0DA
:101CC000104323F0170343F080538360254B1B68B8
:101CD000B3FBF2F301335B000193019B002B3FF454
:101CE00048AF019B013BF7E700254FE7A26D42F0AB
:101CF0002002A265E26D42F00102E26580E7B3F5E1
:101D0000001FCAD1276E820027FA02F202F00F02EA
:101D10000F2A0ED001300828F5D18B6AE369013B08
:101D20009B0003F01C036FF00F0202FA03F33B4326
:101D3000B2E70128ADD0F0E7A36D23F0120343F022
:101D40001003A365E36D43F00103E3650125B1E7EB
:101D500043F01003A365F9E702FCFF1F00200140D8
:101D6000400D030000000020F8B54569082D044629
:101D70000E460AD00368DB68D90705D5836D43F0AA
:101D8000200383650120F8BD0425FFF7E1FB07462A
:101D9000206803682B4222D0A36D43F40073A3652F
:101DA000C36813F4406F14D1A37E93B903681B0773
:101DB0000FD5FFF7C7FE38BB2268536823F00C032A
:101DC0005360A36D23F4807323F0010343F00103F8
:101DD000A365207E08BB23680C221A60D3E7721C1F
:101DE000D7D0FFF7B5FBC01BB04201D8002ECFD132
:101DF00023681B682B40CBD1A26D84F8543042F08D
:101E00000402A2650320BEE7A36D43F02003A3658F
:101E1000E36D43F00103E365DBE70020B3E703680C
:101E2000186C7047F7B50023019390F85430012BDC
:101E3000044600F0C780012380F854300068FFF7A3
:101E400081FE002840F0B880D1E9002023690228F3
:101E500023F0040300F08380B3F1004F2568C2F340
:101E6000110E13D1AB6A43EA0E03AB628B6868694B
:101E700003EA022323F07C4323F0FF0320EA02213C
:101E80000B43002A6B6126DB002055E0236E00F037
:101E90001F074FF00F0C0CFA07FC6FEA0C0623EA41
:101EA0000C0CBEF1000F11D1C2F38463BB4043EAB6
:101EB0000C0323668008E36901309842D6D8A86AEB
:101EC000C2F38363BB4006403343CEE792FAA2F3EA
:101ED000B3FA83F3EAE73C493C48D1F80837824239
:101EE00003F0E07519D11B02CED4D1F80837384A77
:101EF00023F0E0732B4343F40003C1F80837354B5C
:101F00001B68B3FBF2F20C2302FB03330193019B2A
:101F1000002BB9D0019B013BF8E72F48824210D13A
:101F200013F08070B0D1D1F8083723F0E0732B4361
:101F300043F08073C1F80837002384F8543003B0AD
:101F4000F0BD264882429FD113F480009CD1D1F885
:101F5000083723F0E0732B4343F48003EAE7B3F13F
:101F6000004F06D121688B6AC2F3110023EA0003F7
:101F70008B62002A88DA154813498242D1F8083763
:101F800009D1D1F8082703F0A07322F0E0721343BF
:101F9000C1F8083778E71048824204D1D1F8082701
:101FA00003F44003F1E70D4882427FF46DAFD1F8AE
:101FB000082703F0C073E8E7A26D42F02002A26593
:101FC0001846B9E70220BAE700200140001000B02F
:101FD000400D030000000020004000B8002000B4C5
:101FE00038B504460068FFF7ADFD08B9002038BDDC
:101FF00022689368990707D4936823F0004323F07D
:10200000170343F010039360FFF7A2FA0546236815
:102010009B685B07EAD5FFF79BFA401B0228F6D9BD
:1020200023689B685A07F2D5A36D43F01003A3659C
:10203000E36D43F00103E3650120D8E773B50023A6
:10204000026801939368DD07044602D5002002B0C0
:1020500070BD9168214B194209D0A36D43F0100364
:10206000A365E36D43F00103E3650120EFE79368A7
:1020700023F0004323F0170343F001039360184B50
:10208000D3F8083718021CD4637E012BDED0FFF78B
:102090005FFA144E054622681368DB07D6D49368AE
:1020A000D9075FBF9368334043F001039360FFF7A4
:1020B0004FFA401B0228EED923681B68DA07EAD4DE
:1020C000CBE7094B094A1B68B3FBF2F301330193D9
:1020D000019B002BD8D0019B013BF8E71700008043
:1020E00000200140E8FFFF7F00000020400D0300BA
:1020F00038B504460068FFF725FD054620BB94F877
:102100005430012B20D0012384F854302046FFF7AF
:1021100095FFB0B9A36D226823F4706323F0010327
:1021200043F48073A3651C23E065136084F85400B6
:10213000936823F0004323F0170343F004039360F4
:1021400038BD84F85450FBE70220F9E7026838B53F
:10215000936891680446C80701D4002038BD9907E8
:10216000FBD4936803F00503012B19D1936823F086
:10217000004323F0170343F002039360032313602B
:10218000FFF7E6F9054623689B68DB07E5D5FFF70F
:10219000DFF9401B0228F6D923689B68DA07F2D5DD
:1021A000A36D43F01003A365E36D43F00103E36502
:1021B0000120D3E770B50446002843D0836D43F077
:1021C00002038365FFF70CFF054668B92046FFF759
:1021D000BDFF054608B90123A3652268936823F073
:1021E000104323F01703936023685A6822F4677240
:1021F00022F003025A6040F29F321A60D968124AF4
:102200000A40DA601A6922F040421A615A6922F0E3
:1022100007025A611A6A02F0F0221A629A6A0B4A9D
:1022200000269E62D2F8083723F0FE73C2F8083702
:102230002046FEF761FDE6652666A66584F85460D3
:10224000284670BD0125FBE700023E8300200140C7
:1022500010B590F85430012B044615D0012380F8B6
:102260005430FFF7BDFE58B92046FFF76FFF38B96D
:10227000A36D23F4807323F0010343F00103A365EE
:10228000002384F8543010BD0220FCE7F7B500238A
:10229000019390F85430012B04467FD0012380F83D
:1022A0005430FFF753FF23689A6812F00102054685
:1022B00070D1A16D3A4F21F4817141F00201A16505
:1022C000DE68D96821F4004121F00301D9600820BB
:1022D0009968394041F0004199609968002913DA02
:1022E0000199013101910199B1F52E3FF5D3A36D0B
:1022F00023F0120343F01003A365002384F8543045
:102300000125284603B0F0BDD3F8B410013801F020
:102310007F010A44DCD199682148014041F0010164
:102320009960D3F8B41021F07F0141EAD202C3F8DA
:10233000B4209A68024042F002029A60FFF708F95E
:10234000074623689A68D20712D426F4FF4626F07F
:102350007C06DA683604360C1643DE60A36D23F083
:10236000030343F00103A365002384F85430C8E756
:10237000FFF7EEF8C01B0228E3D923689B68D90752
:10238000DFD5A36D43F01003A365E36D43F00103B4
:10239000E365B5E7A36D43F01003E4E70225B0E77A
:1023A000E8FFFF7F0749CA6822F4E06203021204D3
:1023B00003F4E063120C134343F0BF6343F40033B0
:1023C000CB60704700ED00E0164B30B5DC68C4F31D
:1023D0000224C4F10703251D042B28BF0423062D66
:1023E0004FF0FF3505FA03F38CBF033C002421EACC
:1023F0000303A34005FA04F422EA0402002843EA96
:102400000203ACBF00F16040074A4FEA0313B8BFB4
:1024100000F00F00DBB2AABF00F56140135480F852
:10242000003330BD00ED00E014ED00E0002808DBD3
:102430000123420900F01F0003FA00F0014B43F8AA
:102440002200704700E100E000280DDB4309012273
:1024500000F01F0002FA00F02033044A42F8230083
:10246000BFF34F8FBFF36F8F704700BF00E100E0F5
:1024700070B5D0E913456560446D14B1D0E91645D7
:102480006560D0E9105404F01C060124B4406C606F
:10249000046863608368102B0BBFA260A160E160D9
:1024A000E26070BD0268416CD3B210B5083B1424E1
:1024B000B3FBF4F30B4CA24288BF0B4A21F003019B
:1024C00099BF01F1804202F502325218073382644B
:1024D000064AC26403F01F03012202FA03F30365F4
:1024E00010BD00BF070402401C08024080080240E3
:1024F00010B5002861D00268314B9A424FF01404A5
:102500004ED830491144B1FBF4F189004164A3F283
:1025100007430364022380F82530136823F4FF4344
:1025200023F070031360D0E9023423430469116877
:1025300023434469234384692343C4692343046ACE
:1025400023430B431360FFF7ADFF8368816CB3F542
:10255000804F04BF00234360426802F07F030B609A
:10256000D0E91314013A032A4C6021D8164A1749BE
:1025700081651A44013B9200012103F0030301FA33
:1025800003F300214265C3651160114A53640023BF
:102590000122C36380F8243080F82520184610BD3E
:1025A0000C4B1344B3FBF4F39B0043640A4BB0E7BA
:1025B0000023C0E91533C365E9E70120EFE700BF59
:1025C00007040240F8FFFDBF3F82001040090240AF
:1025D00000090240F8FBFDBF0004024038B50028A6
:1025E00045D001680B6823F001030B60214B994231
:1025F0004FF0140433D8204A0A44B2FBF4F292009C
:102600004264A3F207430364D0E91023012403F0DA
:102610001C0304FA03F300250D605360FFF742FF2B
:10262000836C41681D60D0E913325A604A1E032A48
:1026300006D8124B0B449B0094401D60104B5C6409
:102640000023C363C0E91533C0E90B33C0E90D3380
:10265000C36580F8253080F82430184638BD094B12
:102660000B44B3FBF4F39B004364074BCBE701201F
:10267000F4E700BF07040240F8FFFDBF3F820010EF
:1026800000090240F8FBFDBF0004024070B590F85D
:102690002450012D04463CD090F825600125AE421F
:1026A00080F824504FF000062DD1022580F82550E7
:1026B000C6630668356825F001053560FFF7D8FE6A
:1026C000026B0368BAB11A6842F00E021A60A26C7B
:1026D0001168C90342BF116841F480711160626DD5
:1026E0001AB1116841F4807111601A6842F0010258
:1026F0001A60002070BD1A6822F004021A601A687D
:1027000042F00A02E2E78023C36380F8246028468F
:10271000F0E70220EEE740B190F82530022B06D01A
:102720000423C363002380F824300120704703682A
:10273000816C1A6822F00E021A600A6822F4807214
:102740000A601A6822F001021A60D0E9101303F03F
:102750001C02012393404B60D0E913325A60436D51
:1027600033B11A6822F480721A60D0E916325A60C6
:10277000012380F82530002380F824301846704764
:1027800010B590F82530022B03D00423C363012039
:1027900010BD03681A6822F00E021A601A6822F04F
:1027A00001021A60826C136823F480731360D0E90D
:1027B000101303F01C02012393404B60D0E9133245
:1027C0005A60436D33B11A6822F480721A60D0E9FE
:1027D00016325A60012380F82530836B002480F87C
:1027E000244013B198472046D2E71846D0E70000AE
:1027F00070B4426C046C036826681D6802F01C0209
:102800000421914031420FD015F0040F0CD01A680A
:1028100092065EBF1A6822F004021A60036B6160C0
:10282000002B33D070BC184702219140314217D0A1
:1028300015F0020F14D01A68940606D41A6822F014
:102840000A021A60012280F82520114A93428CBFA7
:10285000104B114B5960002380F82430C36ADFE726
:1028600008219140314211D029070FD5196821F074
:102870000E011960012303FA02F26260C36380F85B
:102880002530002380F82430436BC9E770BC7047C3
:102890008000024000040240000002400A4A5369DE
:1028A00043F4802330B55361EFF3108472B60023F4
:1028B000CD58C5500433B3F5807FF9D11369DB03DC
:1028C000FCD484F3108830BD00400058064B5A6990
:1028D000002ABFBF054A9A6002F188329A60BABFE7
:1028E0005869C00F00207047004000582301674519
:1028F000044B5A6942F000425A615869C043C00F04
:10290000704700BF0040005870B50546FEF720FE36
:10291000124E04463369D90313D43369DA0744BF2E
:10292000012232614CF2FA32134011D10B4E306960
:1029300010F480200BD0FEF70BFE001BA842F6D34C
:1029400004E0FEF705FE001BA842E3D3032070BDA0
:10295000024A1361024A01205360F8E70040005820
:10296000500300202DE9F041184D98462B78012B9B
:1029700006460C46174626D001232B704FF47A707A
:1029800000236B60FFF7C0FFA0B9012E16D1104ADB
:10299000536943F0010353612760BFF36F8FC4F89D
:1029A00004804FF47A70FFF7AFFF094A536923EAB6
:1029B0000606566100232B70BDE8F081394620469B
:1029C000FFF76CFFEDE70220F6E700BF50030020A1
:1029D00000400058054A536923F47E7343EAC0005F
:1029E00040F4803040F002005061704700400058D1
:1029F0002DE9F041234F3B78012B054688463FD017
:102A000001233B704FF47A7000237B60FFF77CFF5B
:102A1000044688B92B68042B13D11B4A536943F42D
:102A2000803343F0040353614FF47A70FFF76CFF77
:102A30000446154B1A681B6800233B702046BDE80E
:102A4000F0814FF0FF33C8F800306E68D5E90132ED
:102A50001344B3420AD93046FFF7BCFF4FF47A70F3
:102A6000FFF752FF50B1C8F800600446064A5369A8
:102A700023F47E7323F002035361DAE70136E5E7BE
:102A80000224DBE7500300200040005870B5164CCC
:102A90002378012B054625D0012323700368A3600A
:102AA00000264FF47A706660FFF72EFF014610B1E2
:102AB0002670084670BD0D4A536943F04073536158
:102AC0002B68042B07D12061536943F4803343F012
:102AD00004035361EDE7AB68686863612061FFF749
:102AE00079FFE6E70221E4E75003002000400058A8
:102AF0002DE9F04F524C00234FF00F090A6832FACB
:102B000003F501D1BDE8F08F012505FA03F818EAB5
:102B1000020200F08E804E68032706F003054FEA9C
:102B2000430E07FA0EFC6F1E012F6FEA0C0C32D811
:102B3000876807EA0C0ACF6807FA0EF747EA0A0720
:102B40008760476827EA0808C6F300179F4047EAEE
:102B500008074760C76807EA0C088F6807FA0EF78E
:102B600047EA0807022DC76017D14FEAD30800EBE8
:102B7000880803F0070AD8F820704FEA8A0A09FA91
:102B80000AFB27EA0B0B0F6907FA0AF747EA0B075C
:102B9000C8F8207001E0032DDCD1076805FA0EF5B6
:102BA00007EA0C072F4316F4403F076041D023F09B
:102BB000030707F1804707F5803703F0030CBD6872
:102BC0004FEA8C0C4FF0070E0EFA0CFEB0F1904F4E
:102BD00025EA0E0E2FD01B4DA8422ED005F580659C
:102BE000A8420CBF0225072505FA0CF545EA0E059B
:102BF000BD602568D74316F4801F0CBF3D401543C8
:102C00002560656816F4001F0CBF3D4015436560E4
:102C1000D4F8805016F4803F0CBF3D401543C4F8F3
:102C20008050D4F88450B60354BF3D401543C4F8D7
:102C30008450013362E70025D6E70125D4E700BFC1
:102C40000008005800040048374A2DE9F04F0023DF
:102C50004FF0010A4FF0070B4FF00F0931FA03F460
:102C600001D1BDE8F08F0AFA03FC1CEA010654D03A
:102C700023F0030404F1804404F5803403F00307D7
:102C8000A568BF000BFA07F8B0F1904F08EA050EEF
:102C900045D0264DA84244D005F58065A8420CBF1A
:102CA00002250725BD40754517D1D2F8805025EA89
:102CB0000605C2F88050D2F8845025EA0605C2F80D
:102CC0008450156825EA06051560556825EA06054D
:102CD0005560A56825EA0805A560056803265C001F
:102CE00006FA04F423FA06F6254300EB860605608F
:102CF00003F00705376AAD0009FA05F527EA05056F
:102D00003562856825EA04058560456825EA0C0575
:102D10004560C56825EA0404C46001339EE70025C8
:102D2000C0E70125BEE700BF0008005800040048C6
:102D30000AB181617047816270470000024A1368DE
:102D400043F4807313607047000400580D4B10B5B6
:102D50005B690C4628B99A0507D500F027F820B121
:102D600010BD9B0501D400F019F8074A1369012C26
:102D700023F00403136101D130BFF1E740BF20BF4E
:102D800020BFEDE70004005800ED00E0024B18689A
:102D900000F4C060704700BF00040058024A136886
:102DA00043F4804313607047000400580C4A1368D2
:102DB00023F4804313600B4B1B6832214B430A49B9
:102DC000B3FBF1F35169890500D533B9536913F4A5
:102DD000007F14BF032000207047013BF2E700BFD3
:102DE000000400580000002040420F000B4A136806
:102DF00023F0070343F002031360094B1A6901280B
:102E000042F004021A6105D130BF1A6922F00402AF
:102E10001A61704740BF20BF20BFF6E7000400588A
:102E200000ED00E04FF0B0431868C0F34040704739
:102E30004FF0B0431868C0F3802070474FF0B043A4
:102E40001868C0F3400070474FF0B042536823F455
:102E50007F4343EA0023536070474FF0B043186844
:102E6000C0F34060704700007FB54FF0B0432C4A7C
:102E7000D3F80831C0F3031003F00F0352F82040D9
:102E8000284A52F82330B4FBF3F4FFF77FFF264BB8
:102E9000054693E80700B5F5007F04AB03E907009A
:102EA00010D0224B9C4218D303F5B70303F67F538F
:102EB0009C4229D903F5741303F510639C4225D86D
:102EC00002230BE01A4B9C4207D91A4B9C421BD998
:102ED00003F5370303F5D853F0E7002304AA02EB08
:102EE000830353F80C4C144D2B6823F00703234342
:102EF0002B60FEF72DFB06462B6803F007039C4270
:102F000006D1002004B070BD0123E7E70024EAE702
:102F1000FEF71EFB801B0228EED90320F2E700BF5C
:102F2000DCE900087CE9000804E90008C0CF6A0079
:102F3000BFEA21013F933402004000584FF0B043F4
:102F400010B59A68D96812F00C0205D00C2A4AD143
:102F500001F00303012B50D14FF0B0412B480B6817
:102F600013F0080306D00B6813F0080337D1D1F82B
:102F7000941007E00C68240756BFD1F89430096814
:102F8000C3F3032350F82330002A0CBF1846002057
:102F90004FF0B0418A6802F00C020C2A1ED1CA68B8
:102FA00002F00302022A2ED0032A06D10B68184A27
:102FB00013F4801F174B18BF13464FF0B042D06870
:102FC000D168D268C0F306205843C1F3021301331D
:102FD000B0FBF3F0530F0133B0FBF3F010BD0B68FF
:102FE000C3F30313CEE7042A0AD0082A05D11B68CD
:102FF00013F4801304D10748CAE700231846C7E733
:1030000003480023C4E7024BD7E700BFDCE9000810
:103010000024F4000048E80108B5FFF78FFF4FF0E7
:10302000B043044A9B68C3F3031352F82330B0FB48
:10303000F3F008BD7CE900082DE9F04104460028C2
:1030400055D04FF0B0439D68DE680368990605F0DF
:103050000C0506F003066BD51DB10C2D49D1012ED0
:1030600047D1FFF7EBFE10B1236A002B3FD04FF0A2
:10307000B043A06A1A68120756BFD3F894301B6891
:103080001B0903F0F00398421ED9FFF7EDFE00285C
:103090002DD14FF0B042136843F00803136013685A
:1030A000A16A23F0F0030B431360606AFFF7CCFEC4
:1030B000FFF7B2FFAC4B1860AC4B1868FEF746FA4E
:1030C000002835D0BDE8F0814FF0B042136843F0DE
:1030D00008031360136823F0F00303431360606A6E
:1030E000FFF7B2FEA06AFFF7BFFE0028E0D0012084
:1030F000E8E7226A4FF0B043002A54D01A6842F041
:1031000001021A60FEF724FA0746FFF797FE00282F
:1031100042D04FF0B042136843F0080313601368C5
:10312000A16A23F0F0030B431360606AFFF78CFE83
:103130002368DB0748D423689F0700F19080236849
:103140001E0740F1FC80A3694FF0B046002B00F051
:10315000E380D6F89430E16903F01002914200F068
:10316000C68003F00302022AC1D0D80740F1B5801F
:10317000D6F8943023F00103C6F89430FEF7E8F94E
:103180000746D6F89430990740F1A780FEF7E0F99A
:10319000C31B112BF5D904E0FEF7DAF9C01B022896
:1031A000B3D903208EE71A6822F001021A60FEF7F5
:1031B000CFF90746FFF742FE0028B9D0FEF7C8F95D
:1031C000C01B0228F6D9ECE7082D03D00C2D09D13D
:1031D000032E07D1FFF726FE0028ACD06368002B32
:1031E000A9D184E74FF0B043A1681A6822F4801295
:1031F0000A431A606268B2F5803F10D11A6842F43F
:1032000080321A60FEF7A4F90746FFF70BFE00288C
:1032100091D1FEF79DF9C01B6428F6D9C1E7B2F53C
:10322000041F04D11A6842F400121A60E6E7196814
:1032300021F480311960196821F400111960002A05
:10324000E0D1FEF785F90746FFF7ECFD00283FF4D3
:1032500072AFFEF77DF9C01B6428F5D9A1E7042DF4
:1032600003D00C2D12D1022E10D1FFF7E1FD18B1C1
:103270002369002B3FF43BAF4FF0B04261695368C4
:1032800023F0FE4343EA0163536058E722694FF09D
:10329000B04382B11A6842F480721A60FEF758F99E
:1032A0000646FFF7C5FD0028E6D1FEF751F9801B61
:1032B0000228F6D975E71A6822F480721A60FEF7C0
:1032C00047F90646FFF7B4FD00283FF438AFFEF794
:1032D0003FF9801B0228F5D963E74FF0B042E1695E
:1032E000D2F8943023F010030B43C2F894304FF01F
:1032F000B047D7F8943043F00103C7F89430FEF795
:1033000027F90646D7F894309A0718D4FEF720F923
:10331000831B112BF6D944E7D6F8943023F0010330
:10332000C6F89430FEF714F90746D6F894309B0798
:1033300005D5FEF70DF9C31B112BF6D931E723682C
:10334000580753D50A4F3B68D90513D4FFF7F6FC4D
:10335000FEF7FEF806463B68DA050BD4FEF7F8F8F0
:10336000831B022BF7D91CE700000020040000207B
:1033700000040058E3684FF0B046002B58D023F00B
:103380008003052B02BFD6F8903043F00403C6F843
:1033900090304FF0B046FEF7DBF8D6F8903043F0AF
:1033A00001030746C6F8903041F28838D6F89030CD
:1033B0009B0705D4FEF7CCF8C31B4345F6D9F0E6CE
:1033C000E36823F00403812B1BD1FEF7C1F8D6F884
:1033D000903043F08003C6F8903007464FF0B04677
:1033E00041F28838D6F89030180504D5E06A0028F4
:1033F0004AD1002066E6FEF7ABF8C01B4045F1D984
:10340000CFE6FEF7A5F8D6F8903023F08003C6F893
:10341000903007464FF0B04641F28838D6F89030E9
:103420001905E3D5FEF794F8C01B4045F6D9B8E678
:10343000FEF78EF8D6F8903023F080030746C6F8E2
:10344000903041F28838D6F890301A0516D4FEF73D
:103450007FF8D6F8903023F00103C6F89030074685
:103460004FF0B04841F28836D8F890309B07BDD570
:10347000FEF76EF8C31BB342F6D992E6FEF768F882
:10348000C01B4045DFD98CE60C2D53D04FF0B04324
:1034900002281A6822F080721A6033D1FEF758F8B9
:1034A0000546FFF7DAFC38BBD4E90C314FF0B042E7
:1034B0000B43D0682F4901400B43E16B0B43216C58
:1034C0000B43616C0B43A16B43EA0123D360136888
:1034D00043F080731360D36843F08053D360FEF7EA
:1034E00037F80446FFF7B9FC002882D1FEF730F820
:1034F000001B0A28F6D954E6FEF72AF8401B0A28D2
:10350000CFD94EE6DA6822F00302DA60DA6822F0F8
:10351000885222F48032DA60FEF71AF80446FFF788
:103520009CFC00283FF465AFFEF712F8001B0A2848
:10353000F5D936E601283FF4C5AD4FF0B043226B14
:10354000DB6803F0030191427FF4D1AD616B03F0BE
:1035500070028A427FF4CBADA16B03F4FE42B2EB62
:10356000012F7FF4C4AD626C03F0604393423FF4DB
:1035700040AFBCE58C80C1112DE9F0410D460446F9
:1035800010B90120BDE8F081674E336803F00703EE
:103590008B4216D32368980727D54FF0B047A2680F
:1035A000BB6823F0F0031343BB60FDF7D1FF064671
:1035B000BB68D90319D4FDF7CBFF831B022BF7D9C6
:1035C00011E0336823F007030B433360FDF7C0FFBE
:1035D0000746336803F00703AB42DBD0FDF7B8FFC3
:1035E000C01B0228F5D90320CCE723685A0617D55B
:1035F0004FF0B0476269D7F8083123F00F0343EA70
:103600001213C7F80831FDF7A3FF0646D7F80831B3
:10361000DB0305D4FDF79CFF831B022BF6D9E2E701
:1036200023685E0713D54FF0B047E268BB6823F408
:10363000E0631343BB60FDF78BFF0646BB6898034E
:1036400005D4FDF785FF831B022BF7D9CBE7236851
:10365000190714D54FF0B0472269BB6823F46053B3
:1036600043EAC203BB60FDF773FF0646BB685A031B
:1036700005D4FDF76DFF831B022BF7D9B3E7236851
:10368000DB070FD4284C236803F00703AB4237D87D
:10369000FFF7C2FC254B1860254BBDE8F0411868C8
:1036A000FDF754BF6368022B1ED1FFF7BBFB002858
:1036B0003FF467AF4FF0B0466268B36823F003038E
:1036C0001343B360FDF744FF41F288380746B368FF
:1036D000626803F00C03B3EB820FD3D0FDF738FF21
:1036E000C01B4045F3D97EE7032B02D1FFF7B5FBA2
:1036F000DDE713B9FFF7A2FBD9E7FFF799FBD6E7A0
:10370000236823F007032B432360FDF721FF0646C0
:10371000236803F00703AB42BAD0FDF719FF801B03
:103720000228F5D95FE700BF0040005800000020E4
:103730000400002008B5FFF76FFC4FF0B043044AC7
:103740009B68C3F3022352F82330D84008BD00BF62
:10375000BCE9000808B5FFF75FFC4FF0B043044A2E
:103760009B68C3F3C22352F82330D84008BD00BF82
:10377000BCE900084FF0B043D3F89000C0F340001C
:1037800070474FF0B0410209D1F8883002F47F222F
:10379000000123EA020300F47F201843C1F88800E7
:1037A00070474FF0B041020CD1F88830120423EA80
:1037B000020343EA0040C1F88800704770B505680D
:1037C00015F48035044638D0FFF7B8FAFDF7C0FE8F
:1037D000644E05463368DB0529D54FF0B043616B75
:1037E000D3F8902002F44072914214D0D3F8901094
:1037F000D3F8902042F48032C3F89020D3F8902080
:1038000021F4407022F480328D07C3F89020C3F871
:10381000900000F196804FF0B042616BD2F890308A
:1038200023F440730B43C2F89030002505E0FDF708
:103830008FFE401B0228CDD903252268D0070AD568
:103840004FF0B0406168D0F8883023EA114389B264
:103850000B43C0F8883091070AD54FF0B040A168FB
:10386000D0F8883023EA114389B20B43C0F888307E
:10387000930609D54FF0B0412069D1F8883023F480
:1038800040630343C1F88830960502D5206AFFF7EC
:1038900088FF2368580502D5606AFFF782FF236816
:1038A000190502D5A06AFFF77CFF23685A0602D5E6
:1038B0006069FFF766FF23681B0602D5A069FFF762
:1038C00060FF2368DE0502D5E069FFF75AFF216833
:1038D000C80610D54FF0B042E068D2F8883023F423
:1038E00040730343C2F88830B0F5807F02BFD368CD
:1038F00043F08073D3600A040ED54FF0B042206BC2
:10390000D2F8883023F040430343C2F8883018B916
:10391000D36843F08073D3604B0410D54FF0B042AE
:10392000E16AD2F8883023F040530B43B1F1005FD5
:10393000C2F8883003D1D36843F48033D36028467B
:1039400070BDFDF705FE41F288360546FFF712FF10
:1039500001283FF460AFFDF7FBFD401BB042F5D9F5
:103960006AE700BF0004005830B590F82C30012BF6
:103970004FF0020222D0194B80F82D20CA240125D5
:1039800080F82C505C6253245C62B1F5807F046B3C
:1039900016D19A6922F488529A615A6C24F0010473
:1039A00022F000425A640463DD650C4BFF225A6228
:1039B0000123002280F82D3080F82C20104630BDE5
:1039C000996921F408519961D96C24F0020421F01D
:1039D0000041D9640463DA65E7E700BF00280040CE
:1039E00070B50B4E036B756D1D40EA07044603D599
:1039F0000123F365FDF7CBFEAB0704D50223F36586
:103A0000204600F0C9F9012384F82D3070BD00BFB5
:103A10000028004038B50A4CE36823F02003E36037
:103A2000FDF796FD0546E3689B0601D5002038BDED
:103A3000FDF78EFD401BB0F57A7FF4D90320F6E741
:103A4000002800402DE9F041114DEC6814F04004CD
:103A500007461AD1EB6843F08003EB60FDF778FD71
:103A60004FF003080646EB685B0601D4032C02D135
:103A70002046BDE8F081FDF76BFD801BB0F57A7F35
:103A800084BF87F82D800324EDE70024F0E700BF12
:103A900000280040104BDA6822F0800210B5DA608E
:103AA0009A699206044606D4FFF7B4FF10B10320CA
:103AB00084F82D0010BD9A6922F020029A61FFF768
:103AC000A9FF10B1032084F82D00034A936943F045
:103AD00020039361EEE700BF0028004038B504469C
:103AE000002847D090F82D3003F0FF021BB980F872
:103AF0002C20FDF7B7FB204D022384F82D30CA237C
:103B00006B6253236B622046FFF79CFF70BBAB696F
:103B100023F08E6323F04003AB6121696368AA69D7
:103B20000B431343A2691343AB61D4E9022343EA75
:103B300002432B61D4E90931EA680B4322F4F852BD
:103B40001343EB602046FFF7A5FF78B9D4E90713CC
:103B5000AA690B4322F06042134362691343AB61CD
:103B6000FF236B62012384F82D3038BD024BFF2206
:103B70005A62FAE70120F8E70028004000230928EC
:103B800003D840EA0310C0B270470A380133C0B20C
:103B9000F5E700002DE9F04790F82C30012B0546A1
:103BA0004FF0020069D0012385F82C304E4B85F888
:103BB0002D00DE6806F44076B6F5807F78D04C693B
:103BC000087891F8018091F802A091F82470002AF9
:103BD00055D19A6912F0400208BFCA70FFF7CEFFB4
:103BE00081464046FFF7CAFF80465046FFF7C6FFB2
:103BF00082463846FFF7C2FF0A6ACB78224342EA80
:103C0000835242EA0A0343EA094343EA082343EAA8
:103C10000063354ACA205062532050628C6A88691A
:103C2000B4F5807F946945D124F4885494610124CB
:103C3000D465B6F5807F09BFCB6913640343536431
:103C400018BF5064284B4A681A672A6B42F0010279
:103C50002A639A6942F488529A61244AD2F88030E1
:103C600043F40033C2F880301F4BFF225A62002019
:103C7000012385F82D3085F82C00BDE8F087B4F1DC
:103C8000803F07D0B4F5000F04D09A6912F04002CB
:103C900008BFCA700A6A144344EA0A0444EA0043AB
:103CA000C87843EA082343EA805343EA0763B0E74E
:103CB0000023AEE724F4085494610224D465B6F5D9
:103CC000807F09BFCB6993640343D36418BFD0647A
:103CD000054B4A685A672A6B42F002022A639A69C6
:103CE00042F40852B8E700BF00280040000800581E
:103CF00090F82C20012A03464FF0020012D00A4A05
:103D000083F82D00CA21516253215162916941F01B
:103D100020019161FF2151620020012283F82D20B2
:103D200083F82C00704700BF0028004090F82C203A
:103D3000012A03464FF0020019D00D4A83F82D00E6
:103D4000CA2151625321516291690A4841F08001B0
:103D50009161D0F8801041F48021C0F88010FF21DB
:103D600051620020012283F82D2083F82C00704737
:103D70000028004000080058064B5A6D520610B546
:103D8000044603D54022DA65FDF704FD012384F8DB
:103D90002D3010BD002800407047890001F180419E
:103DA00001F531410A607047890001F1804101F558
:103DB0003141086870470000034AD2F8903043F45C
:103DC0000043C2F89030704700040058034AD2F80C
:103DD000903023F40043C2F890307047000400583C
:103DE000074B1A6822F040021A6040F441704FF409
:103DF000B85218605A601A6842F040021A60704760
:103E00000000015813B50446002842D0837903F01E
:103E1000FF0213B94271FDF7BDFA02234FF0B04221
:103E2000A371D2F8943023F40043C2F894301A4BB3
:103E30001B681C214B43DB0C64214B430193019B0A
:103E4000F3B90121A160FFF7B7FF144AD2F890300F
:103E500043F48053C2F89030114B9A6842F40062E8
:103E60009A604FF400629A6129B92068FFF7B8FFA1
:103E700001232371A1600123A371084602B010BD84
:103E8000019B013B0193D2F8941011F48041D6D1EB
:103E9000D9E70121F1E700BF000000200008005829
:103EA0000004005837B5174D2B6802461C204343C9
:103EB000DB0C6420434314480193019B93B9012018
:103EC0009060114C21732B681C214B43DB0C642147
:103ED0004B430193019B6BB9012090600A4BDB6857
:103EE00003B030BD019B013B019383689C07E4D57F
:103EF0000020E6E7019B013B0193A368DB07E9D5BE
:103F0000ECE700BF000000200000015837B5184D55
:103F10002B6802461C204343DB0C642043431548B6
:103F20000193019BA3B901209060124CFF232373DE
:103F30002B681C256B43DB0C64256B430193019BB1
:103F400073B9012090600B4BDB680B7003B030BD80
:103F5000019B013B019383689C07E2D50020E4E7C5
:103F6000019B013B0193A368DB07E8D5EBE700BFAA
:103F700000000020000001580F4B13B51B680F4CC8
:103F8000182253431B0D6422534301460193626977
:103F9000019B02F0040223B902238B60012002B0CE
:103FA00010BD019B013B0193606910F00200F6D047
:103FB000002AECD11046F2E700000020000400586F
:103FC00007B50379012B0FD10A4B1B681822534305
:103FD0001B0C0193FFF7FAFE019B013B0193019B30
:103FE000002BF9D1FFF7E8FE03B05DF804EBFFF713
:103FF000C3BF00BF00000020F8B51E468379012B27
:10400000154604460F46DAB22DD14379012B2AD04A
:10401000022342718371FFF7D3FF0D212046FFF782
:10402000D5FEFFF73FFF390A2046FFF73BFFF9B205
:104030002046FFF737FF2E44B5420ED12046FFF74A
:10404000BBFEFFF799FFA06801230038A3714FF072
:10405000000318BF01206371F8BD15F8011B20464D
:10406000FFF720FFE8E70220F6E7F8B51E46837960
:10407000012B154604460F46DAB22FD14379012BA6
:104080002CD04271FFF79CFF1D212046FFF79EFEBA
:10409000FFF708FF390A2046FFF704FFF9B2204670
:1040A000FFF700FF00212046FFF7FCFE2E44B5423B
:1040B0000ED12046FFF780FEFFF75EFFA0680123C8
:1040C0000038A3714FF0000318BF01206371F8BDE1
:1040D00029462046FFF71AFF0135E8E70220F6E7F8
:1040E000F8B51F468379012B154604460E46DAB211
:1040F0002CD14379012B29D04271FFF761FF06F0E3
:10410000EF03A3F184025342534123713146204609
:10411000FFF75CFEFFF7C6FE2F44AF4210D1FFF75A
:104120004BFE842E02D02046FFF726FFA068012315
:104130000038A3714FF0000318BF01206371F8BD70
:1041400015F8011B2046FFF7ADFEE6E70220F6E773
:10415000F8B51E468379012B154604460F46DAB2A0
:1041600027D14379012B24D04271FFF729FF39462B
:104170002046FFF72BFEFFF795FE00212046FFF7B4
:1041800091FE2E44B5420ED12046FFF715FEFFF7F3
:10419000F3FEA06801230038A3714FF0000318BF9D
:1041A00001206371F8BD29462046FFF7AFFE0135B7
:1041B000E8E70220F6E737B50023ADF8043001AA9E
:1041C000022312210446FFF7C3FFBDF804305BBA97
:1041D000DA079DB202D5204609F0A4F8AB0702D554
:1041E000204609F0A5F8680702D5204609F0CAF86C
:1041F000290702D5204609F0CBF8EA0602D5204669
:1042000009F0CCF8AB0602D5204609F0B5F86806EF
:1042100002D5204609F092F8290607D5EA05C5F32C
:104220000021204648BF012109F08EF8AB0502D5D8
:10423000204609F099F8022301AA19462046FFF703
:104240004FFF03B030BDF8B51E468379012B1546EC
:1042500004460F46DAB227D14379012B24D04271AC
:10426000FFF7AEFE0E212046FFF7B0FDFFF71AFE66
:1042700039462046FFF716FE2E44B5420ED12046A1
:10428000FFF79AFDFFF778FEA06801230038A371BD
:104290004FF0000318BF01206371F8BD15F8011B32
:1042A0002046FFF7FFFDE8E70220F6E7F8B51E46D7
:1042B0008379012B154604460F46DAB22BD1437998
:1042C000012B28D04271FFF77BFE1E212046FFF70D
:1042D0007DFDFFF7E7FD39462046FFF7E3FD0021AE
:1042E0002046FFF7DFFD2E44B5420ED12046FFF7F2
:1042F00063FDFFF741FEA06801230038A3714FF072
:10430000000318BF01206371F8BD29462046FFF75E
:10431000FDFD0135E8E70220F6E7026852E8003FBC
:1043200023F0C00342E8003102680029F5D102F110
:10433000080353E8003F23F4000302F1080C4CE8A3
:1043400000310029F3D12023C0F8843070470000E9
:1043500010B5026852E8003F23F4907342E8003140
:1043600002680029F5D10F4C02F1080353E8003F21
:10437000234002F1080C4CE800310029F4D1C36E4F
:10438000012B07D152E8003F23F0100342E800312F
:104390000029F7D12023C0F888300023C3660367C3
:1043A00010BD00BFFEFFFFEFF8B504461346D4F87A
:1043B0008470202F43D161B35AB394F88020012A2E
:1043C0003DD0A06FA4F85630012500262122C4F864
:1043D0008C6084F880502165A4F85430C4F884209F
:1043E000C8B1DFF860C02268C0F82CC0DFF858C040
:1043F000C0F830C0DFF854C02832C0E90DC6FEF75F
:1044000045F940B11023C4F88C3084F88060C4F8BA
:104410008470012012E0236840221A62002322687F
:1044200084F8803002F1080353E8003F43F0800332
:1044300002F1080141E800300028F3D1F8BD022064
:10444000FCE700BF5144000899440008A544000857
:1044500008B50346806A1B681B6813F0200317D158
:10446000A0F85630026802F1080353E8003F23F039
:104470008003083242E8003102680029F2D152E894
:10448000003F43F0400342E800310029F7D108BD66
:10449000FDF7B4FAFBE7704708B5806AFFF7FBFF4A
:1044A00008BD7047806A0268D0F8843010B5D0F833
:1044B00088409268120606D5212B04D10023A0F86B
:1044C0005630FFF72AFF03689B685B0606D5222C4F
:1044D00004D10023A0F85E30FFF73AFFD0F88C300B
:1044E00043F01003C0F88C30FFF7DBFF10BD08B5B8
:1044F000806A0023A0F85E30A0F85630FFF7D1FFA5
:1045000008BD70470368DA6919682DE9F04140F683
:104510000F0632429D68044610D1960640F19680FF
:1045200001F0200605F080573E4300F08F80036FB6
:10453000002B00F08480BDE8F0411847A74EA84842
:104540002E400840304300F08180D70709D5C805C8
:1045500007D501201862D4F88C0040F00100C4F89F
:104560008C00970709D5E80707D502201862D4F810
:104570008C0040F00400C4F88C00570709D5E80708
:1045800007D504201862D4F88C0040F00200C4F86B
:104590008C0017070BD501F02000304307D008200E
:1045A0001862D4F88C0040F00800C4F88C0016059E
:1045B0000AD5480108D54FF400601862D4F88C3051
:1045C00043F02003C4F88C30D4F88C30002B36D064
:1045D00093060AD501F0200105F0805551EA050344
:1045E00003D0236F0BB1204698472368D4F88C5032
:1045F0009B6805F0280503F040031D43204620D0AA
:10460000FFF7A6FE226893685F0615D502F108033E
:1046100053E8003F23F0400302F1080040E8003176
:104620000029F3D1E06F38B16E4B8363FEF7A8F831
:1046300028B1E06F836B7EE72046FFF732FFBDE8CD
:10464000F081FFF72EFFC4F88C50F8E7E06E0128E8
:1046500040F08180D6067ED5C8067CD510221A622D
:104660009A68510647D5E26F11684A6892B2002AEB
:10467000E5D0B4F85C009042E1D9A4F85E200A6865
:1046800092062ED453E8002F22F4807243E80021D2
:104690000029F7D103F1080252E8002F22F00102AD
:1046A00003F1080040E800210029F3D103F10802DA
:1046B00052E8002F22F0400203F1080040E80021F8
:1046C0000029F3D12022C4F88820E16653E8002FA6
:1046D00022F0100243E800210029F7D1E06FFEF735
:1046E0001AF8B4F85E30B4F85C10C91A89B22046E2
:1046F000FFF707FFA3E7B4F85E108AB2B4F85E10C4
:1047000089B200299BD0B4F85C10891A89B20029BB
:1047100095D053E8002F22F4907243E8002000283F
:10472000F7D1314D03F1080252E8002F2A4003F17E
:10473000080646E800200028F4D12022C4F888208A
:104740002067E06653E8002F22F0100243E80020C3
:104750000028F7D1CBE7D70209D56E0207D54FF471
:10476000801220461A62BDE8F04100F06BBD1006D1
:104770000BD501F0800005F40005284305D0636FD8
:10478000002B3FF45CAF2046D5E6570611D54E0608
:104790000FD553E8002F22F0400243E80021002902
:1047A000F7D12023C4F8843061672046FDF726F94D
:1047B00045E7150206D5480004D52046BDE8F0417E
:1047C00000F042BDD3017FF53AAF0029BFF637AF05
:1047D0002046BDE8F04100F036BD00BF01000010EA
:1047E00020010004EF440008FEFFFFEFD0F888200E
:1047F000222A08B5036845D15B6AB0F86010826D63
:104800000B401370836D01338365B0F85E30013B5C
:104810009BB2A0F85E30B0F85E309BB273BB02680A
:1048200052E8003F23F4907342E800310368002906
:10483000F5D103F1080252E8002F22F0010203F142
:10484000080C4CE800210029F3D12022C0F8882070
:10485000C26E0167012A12D1C16653E8002F22F00F
:10486000100243E800210029F7D1DA69B0F85C10A2
:10487000D20644BF10221A62FFF743FE08BDFDF7BF
:10488000CBF8FBE79A6942F008029A61F6E7D0F8A4
:104890008820222A08B5036842D1596AB0F86020FE
:1048A0001140826D22F8021B8265B0F85E20013A49
:1048B00092B2A0F85E20B0F85E2092B262BB53E8DC
:1048C000002F22F4907243E800210029F7D103F170
:1048D000080252E8002F22F0010203F1080C4CE814
:1048E00000210029F3D12022C0F88820C26E016780
:1048F000012A12D1C16653E8002F22F0100243E8CA
:1049000000210029F7D1DA69B0F85C10D20644BF63
:1049100010221A62FFF7F5FD08BDFDF77DF8FBE7F1
:104920009A6942F008029A61F6E700002DE9F84F13
:104930000368DD69D3F800809E68D0F88820222AB9
:10494000044640F0A780B0F86070B0F86890DFF8D7
:1049500050B14FF0000A06F00106B9F1000F01D086
:10496000AB0620D4B4F85E309BB2D3B1B4F8682063
:104970009A4216D9226802F1080353E8003F23F057
:104980008053083242E8003122680029F2D1454BB9
:10499000236752E8003F43F0200342E8003100293A
:1049A000F7D1BDE8F88F2368A26D5B6A3B401370B6
:1049B000A36D0133A365B4F85E30013B9BB2A4F84C
:1049C0005E302368DD6969072AD0EA070AD518F442
:1049D000807F07D001221A62D4F88C2042F00102B5
:1049E000C4F88C20A80708D53EB102221A62D4F878
:1049F0008C2042F00402C4F88C20690708D53EB12F
:104A000004221A62D4F88C3043F00203C4F88C30CC
:104A1000D4F88C3023B12046FFF743FDC4F88CA0B6
:104A2000B4F85E309BB2002B97D1226852E8003F69
:104A300023F4807342E8003123680029F5D103F1A3
:104A4000080252E8002F02EA0B0203F1080040E8D6
:104A500000210029F3D12022C4F88820E26E2167CA
:104A6000012A13D1E16653E8002F22F0100243E837
:104A700000210029F7D1DA69B4F85C10D20644BFEE
:104A800010221A622046FFF73CFD66E72046FCF73D
:104A9000C3FF62E79A6942F008029A6181E700BFAA
:104AA000FEFFFFEFED4700082DE9F84F0368DD69D1
:104AB000D3F800809E68D0F88820222A044640F06F
:104AC000A580B0F86070B0F86890DFF84CB14FF096
:104AD000000A06F00106B9F1000F01D0AB0620D4A0
:104AE000B4F85E309BB2D3B1B4F868209A4216D9BC
:104AF000226802F1080353E8003F23F08053083294
:104B000042E8003122680029F2D1444B236752E881
:104B1000003F43F0200342E800310029F7D1BDE80F
:104B2000F88F2368A26D596A394022F8021BA265EA
:104B3000B4F85E20013A92B2A4F85E20DD696907FC
:104B40002AD0EA070AD518F4807F07D001221A621A
:104B5000D4F88C2042F00102C4F88C20A80708D5B4
:104B60003EB102221A62D4F88C2042F00402C4F84A
:104B70008C20690708D53EB104221A62D4F88C3023
:104B800043F00203C4F88C30D4F88C3023B12046B3
:104B9000FFF787FCC4F88CA0B4F85E309BB2002B02
:104BA00099D1226852E8003F23F4807342E8003133
:104BB00023680029F5D103F1080252E8002F02EA28
:104BC0000B0203F1080040E800210029F3D1202264
:104BD000C4F88820E26E2167012A13D1E16653E808
:104BE000002F22F0100243E800210029F7D1DA69F2
:104BF000B4F85C10D20644BF10221A622046FFF7B8
:104C000080FC68E72046FCF707FF64E79A6942F0FA
:104C100008029A6183E700BFFEFFFFEF8F4800089C
:104C200038B5044603682169A2681D68C0690A4353
:104C300061690A437E49024329400A431A605A685F
:104C4000E16822F440520A435A607A4AA1699342C9
:104C50001CBF226A11439A6822F06E4222F430622D
:104C60000A439A60DA6A616A22F00F020A43DA6242
:104C7000714A93421CD14FF0B043D3F8883003F00F
:104C8000030343F44033A3F54033013B022B00F20E
:104C9000C8806A4A9B5CB0F5004F40F08A80082BC0
:104CA00024D8DFE803F061C1842381232323650036
:104CB000634A934209D14FF0B043624AD3F8883037
:104CC00003F00C0343F44023E4E75A4A93420DD126
:104CD0004FF0B043D3F8883003F44063B3F5006F6E
:104CE0001AD005D853B1B3F5806F12D0012009E076
:104CF000B3F5406FFAD14FF400400EE0FEF71AFD15
:104D000058B900204FF00113A3660023C4E91C33F7
:104D100038BDFEF713F9F3E74B4865684B4B626A01
:104D200005EB450133F81220B0FBF2F39942DDD8D0
:104D3000B3EB053FDAD800231946FBF719FE090249
:104D400041EA10616B080002C0182A464FF00003C8
:104D500041F10001FBF70CFE3D4BA0F540729A4279
:104D6000C4D82368D860CCE7FEF7E4FC0028C8D09C
:104D70006268616A354B33F81130B0FBF3F35008C9
:104D800000EB4300B0FBF2F083B2A3F110014FF649
:104D9000EF729142AAD820F00F00226880B2C3F3CC
:104DA00042031843D060ACE7FEF7C8F8DEE72648B8
:104DB000DEE7082B9AD801A252F823F0074E00082C
:104DC000134E00081F4E0008ED4C0008194E000855
:104DD000ED4C0008ED4C0008ED4C0008E14D0008DA
:104DE0004FF400406368616A184A32F81120B0FB42
:104DF000F2F000EB5300B0FBF3F080B2A0F1100230
:104E00004FF6EF73ABE7FEF795FC00283FF479AF60
:104E1000E8E7FEF79FFCF8E7FEF790F8F5E70A48A9
:104E2000E0E7B0F5004FF4D1FEF794FC9EE700BF39
:104E3000F369FFCF00800040003801406CEA0008B1
:104E4000004400406FEAF4070024F4007CEA000804
:104E5000FFFC0F00836ADA0710B506D50168C46A43
:104E60004A6822F4003222434A609C0706D5016852
:104E7000046B4A6822F4803222434A60590706D5FF
:104E80000168446B4A6822F4802222434A601A0770
:104E900006D50168846B4A6822F4004222434A60C6
:104EA000DC0606D50168C46B8A6822F4805222436E
:104EB0008A60990606D50168046C8A6822F400525B
:104EC00022438A605A060FD50168446C4A6822F46E
:104ED00080122243B4F5801F4A6005D14A68846C71
:104EE00022F4C00222434A601B0606D50268C16C48
:104EF000536823F400230B43536010BD2DE9F041A8
:104F0000DDF8188004460E4615461F462268D36910
:104F100036EA03030CBF01230023AB4201D000207B
:104F200027E0B8F1FF3FF2D0FCF712FBC01B404571
:104F3000206802D8B8F1000F1DD150E8003F23F4DB
:104F4000D07340E80032002AF7D100F1080353E89B
:104F5000003F23F0010300F1080141E80032002A7C
:104F6000F3D12023C4F88430C4F8883084F880203A
:104F70000320BDE8F08103685A07C7D5C3691B0544
:104F8000C4D54FF40063036250E8003F23F4D073AC
:104F900040E80032002AF7D100F1080353E8003F4F
:104FA00023F0010300F1080141E80032002AF3D1A7
:104FB0002023C4F88430C4F88830C4F88C30D5E796
:104FC00073B504460026C0F88C60FCF7C1FA23686C
:104FD0001B681A07054618D423681B685B070AD5A7
:104FE0006FF07E43009300222B464FF48001204651
:104FF000FFF784FFA8B920230020C4F8843084F888
:105000008000C4F88830E0660CE06FF07E430093C7
:10501000324603464FF400112046FFF76FFF002889
:10502000DAD0032002B070BD10B5044650B3D0F8FA
:1050300084301BB980F88030FCF7EEFB2268242313
:10504000C4F88430136823F0010313602046FFF78F
:10505000E7FD012816D0A36A13B12046FFF7FAFE38
:1050600023685A6822F490425A609A6822F02A0211
:105070009A601A6842F0010220461A60BDE81040AA
:10508000FFF79EBF012010BD836830B5B3F5805F88
:1050900081654FF00001A0F85C20A0F85E20016758
:1050A00039D10369002B34D140F2FF13A0F86030EE
:1050B0000023C0F88C302223C0F88830016801F149
:1050C000080353E8003F43F00103083141E800348E
:1050D0000368002CF2D1456E84680169B5F1005F68
:1050E0003AD1B0F86850954236D8B4F5805F23D1F4
:1050F0002A4A2B4C002918BF22460267002280F85A
:105100008020D9B153E8002F42F4807243E8002197
:10511000F7E7FF23CAE723B90369002BF9D07F2300
:10512000C4E7B3F1805F04D10369002BF7D03F23BC
:10513000BCE7A0F86010BBE7194ADEE703F10802FC
:1051400052E8002F42F0805203F1080040E80021AD
:105150000029F3D1002030BDB4F5805F12D1114A8F
:10516000114C002918BF22460267002280F88020D7
:1051700051B153E8002F42F4907243E80021002916
:10518000F7D1E7E7084AEFE753E8002F42F02002A3
:1051900043E800210029F7D1DCE700BFA94A000855
:1051A0002D4900088F480008ED470008D0F88830E6
:1051B000202B30B41FD1D9B1D2B190F88030012B5F
:1051C00019D0012380F8803000230468C3660B4B9C
:1051D0009C420AD063681B0207D554E8003F43F0A5
:1051E000806344E80035002DF7D130BCFFF74CBF99
:1051F000012030BC70470220FBE700BF0080004068
:10520000436E30B51BB94FF00113836630BD0368A0
:105210000A4D9A6899680A4C490FC2F342626B5C66
:10522000615CDB00B3FBF1F3A0F86A30AB5CA25C1D
:10523000DB00B3FBF2F3A0F86830E7E79CEA000874
:1052400094EA00087047704770471FB504AB03E944
:10525000060090F88030012B04463AD0012380F8F4
:1052600080302423C0F8843003681A6822F00102D9
:105270001A609A6822F440120A439A6071B9596818
:10528000BDF80C209DF80E0021F01001114359606B
:105290005A6822F07F4242EA00625A601A6842F07D
:1052A00001021A60FCF754F96FF07E420346009247
:1052B0004FF4800100222046FFF720FE38B920235A
:1052C000C4F88430002384F8803004B010BD03207B
:1052D000F8E70220F9E790F88020012A03460ED073
:1052E000012280F88020196851E8002F42F0020264
:1052F00041E800200028F6D183F8800070470220A2
:10530000704790F88030012B14D002682423C0F835
:1053100084301168136823F00103136021F00051F9
:105320000023436611602022C0F8842080F880307A
:10533000184670470220704738B590F88030012B2E
:1053400004461BD0012380F880302423C0F8843029
:1053500003681D681A6822F001021A609A6822F038
:10536000604211439960FFF74BFF03681D602023E3
:10537000C0F88430002084F8800038BD0220FCE7AB
:1053800038B590F88030012B04461BD0012380F8FB
:1053900080302423C0F8843003681D681A6822F026
:1053A00001021A609A6822F0606211439960FFF767
:1053B00027FF03681D602023C0F88430002084F894
:1053C000800038BD0220FCE708B5FCF723F8BDE8F3
:1053D000084000F0EFB84FF0FF3008F0E9BA70472E
:1053E00070477047014BD870704700BF60000020C5
:1053F000014B1873704700BF6000002008B5022001
:10540000002108F09DFABDE80840014808F01CBCE6
:10541000740400200021012008F092BA10B5094C54
:1054200060B12060084808F0BFFB2168064808F01A
:1054300045FCBDE81040044808F006BC47F2305374
:105440002360EFE774000020740400208AB2014951
:1054500008F06CB800F0030838B50C4808F0A4FB5D
:1054600001F0C0FA60B90A4C0A480125257001F024
:1054700083F92078294600F043FF044808F0E4FB54
:10548000BDE83840044808F0DFBB00BF74040020CA
:1054900008000020600000205C04002001F0B4BA85
:1054A00010B5FBF78DFC144C144A02232370F22133
:1054B00040F30F23606808F009FD114B6070D97844
:1054C0000022204600F074FF063012D100F0B4FE36
:1054D00004460C4808F068FB0B4B0A481968A142C7
:1054E00038BF214608F0EAFBBDE81040054808F047
:1054F000ABBB0024EDE700BF0C000020A4EA0008CD
:10550000600000207404002074000020044B1B780D
:10551000022B03D10021082008F012BA704700BF07
:105520000800002008B501F066FA80B900F08AFE94
:1055300001280CD1BFF34F8F0549064BCA6802F40E
:10554000E0621343CB60BFF34F8F00BFFDE708BDA0
:1055500000ED00E00400FA0538B504460D46FDF7FD
:10556000B5F90246D8B90E4BD3F8E0050D4B03EA66
:1055700080204FF47C33B3FBF0F34343C3F57C331B
:10558000D80A0121FBF7B8FC034620B906482A4691
:105590002146FBF7C9FCBDE83840FDF7A9B938BD85
:1055A0000070FF1F00FCFF0300F003087047704706
:1055B0007047000037B500241C4B009422464FF47E
:1055C000FA611B481B4D08F091FA21461A4A012046
:1055D00008F072FA2146194A022008F06DFA2146B5
:1055E000174A042008F068FA164A2146082008F0F5
:1055F00063FA00F033F84FF08171134801F0C0F9FD
:10560000124801F0B9F8124B0121187800F078FE29
:1056100010490094104B09682246284608F066FAA3
:10562000284603B0BDE8304008F00EBB0D55000819
:105630005C0400207404002001620008A1540008EA
:105640009D540008595400081400002060000020F8
:105650000800002074000020FD530008044B0022C5
:10566000C3E9022220210322C3E90021704700BFC1
:105670008C040020004870478C0400202DE9F04184
:10568000134D144F86B04FF4807601230024CDE9EA
:10569000016301A90323284604934FF4005803949F
:1056A0000594FDF725FA01A93846CDF80480FDF7E9
:1056B0001FFA224641463846FDF73AFB2846224665
:1056C0003146FDF735FB204606B0BDE8F08100BF4E
:1056D000000400480008004808B503280FD8DFE898
:1056E00000F00210121A00220C484FF48071FDF7EE
:1056F0001FFB00220A484FF40051FDF719FB002060
:1057000008BD0122F0E7012204484FF48071FDF743
:105710000FFB0122EEE70022F6E700BF000400487D
:1057200000080048022070470020704701207047A1
:1057300000280CBF0F201620704710B51022044619
:105740000021F13005F0D8FF0021C4F814112046E3
:10575000F022BDE8104005F0CFBF024608461021F8
:1057600000F09CB92DE9F0430446D0F8140185B04F
:105770000E46154604F2011788B3C0F11009914591
:10578000C84628BF90461FFA88F2384405F0A0FFAB
:10579000D4F8143143440F2BC4F8143128D9A94547
:1057A00026D204F1F103994613F8012BD97BBB42B1
:1057B00082EA010203F8012CF6D11022494668461C
:1057C00005F086FF22466946684600F0E3F910229C
:1057D0006946484605F07CFF4644A5EB0805102DB8
:1057E00009D8AAB23146384605F072FFC4F8145100
:1057F00005B0BDE8F08304F1F103711E98461A78F4
:1058000011F8010F424003F8012BBB42F7D11022DF
:105810004146684605F05CFF22466946684600F04E
:10582000B9F910226946404605F052FF1036103D86
:10583000D5E7F0B589B00C4610220021064668462F
:1058400005F05AFF22466946684600F0A3F99DF923
:105850000030002B6A464FF0000141DA137812F84D
:10586000010F01315B0043EAD0130F2902F8013C1C
:10587000F4D19DF80F305B0083F087038DF80F3073
:10588000D4F81431102B3AD104F20113694604F212
:1058900011101A7811F8015B6A4003F8012B984245
:1058A000F7D104F1F10304F20110194613F8012BAA
:1058B000DD7B834282EA050203F8012CF6D1102237
:1058C0000DEB020005F004FF2246314604A800F06B
:1058D00061F910220021684605F00EFF09B0F0BD05
:1058E000137812F8010F01315B0043EAD0130F293E
:1058F00002F8013CF4D19DF80F305B00BEE79DF942
:105900000020002A69464FF0000035DA0A7811F8C5
:10591000015F0130520042EAD5120F2801F8012C34
:10592000F4D19DF80F20520082F087025F1C8DF8A1
:105930000F20102F04EB0302C3F10F054FF080017D
:1059400088BF002503F5817382F80111E0182A460B
:1059500000213D4408F0B2FAC4F8145104F20113D6
:10596000694604F211101A7811F8015B6A4003F8D5
:10597000012B9842F7D194E70A7811F8015F0130C2
:10598000520042EAD5120F2801F8012CF4D19DF8FB
:105990000F205200CAE70A780378534003704A7810
:1059A0004378534043708A78837853408370CA7831
:1059B000C3785340C3700A790379534003714A791D
:1059C0004379534043718A79837953408371CA790B
:1059D000C3795340C3710A7A037A534003724A7AF7
:1059E000437A534043728A7A837A53408372CA7AE5
:1059F000C37A5340C3720A7B037B534003734A7BD1
:105A0000437B534043738A7B837B53408373CA7BBE
:105A1000C37B5340C373704710B50B781478634051
:105A2000037054784B786340437094788B7863406C
:105A30008370D478CB786340C37014790B7963405A
:105A4000037154794B796340437194798B79634046
:105A50008371D479CB796340C371147A0B7A634034
:105A60000372547A4B7A634043728B7A947A634020
:105A70008372D47ACB7A6340C372147B0B7B63400E
:105A80000373547B4B7B63404373947B8B7B6340FA
:105A90008373CB7BD27B5340C37310BDA1F1100342
:105AA0002DE9F047DCB2102C06D80123A34003F007
:105AB000013323F080732BB9002382F8F030FF20EC
:105AC000BDE8F087531E4418A04252D101F11C03D7
:105AD0009B005FFA83F8C3F30313013B2C4C82F85D
